:020000040000FA
:04000000FEEF3FF0E0
:100600000000066A02BE09EF03F007EF03F00FEFE8
:1006100003F0016C021ED8B0022A010E066E04BE61
:1006200016EF03F014EF03F01AEF03F0036C041E4F
:10063000D8B0042A03500410D8B421EF03F023EFFC
:1006400003F047EF03F0010E056E2BEF03F0D89097
:1006500003360436052A04AE30EF03F032EF03F020
:1006600027EF03F00350015C04500258D8A03BEF81
:1006700003F03DEF03F041EF03F00350015E04503F
:10068000025AD89004320332052E32EF03F006509E
:10069000D8B44DEF03F04FEF03F053EF03F0016CCC
:1006A000021ED8B0022A01C001F002C002F01200FE
:1006B00093908A900C6A096A0A6A0B6A0C50D8A453
:1006C00064EF03F066EF03F069EF03F0096875EF7C
:1006D00003F00C04D8A46FEF03F071EF03F074EF94
:1006E00003F00A6875EF03F00B680AC001F00BC055
:1006F00002F00950CDEC03F0000E016E010E026E07
:10070000000E046EC00E036EA3EC03F0330E086EF1
:10071000BB0E076EE00EE82EFED7072EFCD7082E84
:10072000FAD7010E0C24016E026A000E0222000E9E
:10073000046E030E036E01EC03F001500C6E5BEFD0
:1007400003F0FEEF3FF0116ED8CF12F0E0CF13F0C0
:10075000F29E11500F6EEE50116E080E106E114683
:100760008A80D8B005D08A9000000000000004D034
:100770000000000000008A901006F1E10F06EBE196
:100780008A90FF0E146E00001406FDE1F28E13C075
:10079000E0FF12C0D8FF11501200036E000E056E6C
:1007A000000E046E000E0424D96E010E0520DA6ED0
:1007B000DF6A044A052A055009E1C00E045CD8A08E
:1007C000E4EF03F0E6EF03F0D2EF03F001C000F135
:1007D00003C001F102C002F1120001EE00F0C00EF0
:0C07E000EE6AE806FDE1000158EF03F0AE
:047FFC00EDEF03F0B2
:020000040020DA
:08000000FFFFFFFFFFFFFFFF00
:020000040030CA
:0E000000FF061F1EFF8181FF0FC00FE00F40A3
:00000001FF
